:020000040800F2
:1000000080850020F9090008FD070008FF070008A7
:1000100003080008070800080B080008000000009B
:100020000000000000000000000000000F080008B1
:100030001108000800000000130800081508000857
:10004000130A0008130A0008130A0008130A00081C
:10005000130A0008130A0008130A0008130A00080C
:10006000130A0008130A0008130A0008F9A9000877
:10007000130A0008130A0008130A0008130A0008EC
:10008000130A0008130A0008130A0008130A0008DC
:10009000130A0008130A0008130A0008130A0008CC
:1000A000130A0008130A0008130A0008130A0008BC
:1000B000130A0008130A0008130A0008130A0008AC
:1000C000130A0008130A0008130A0008130A00089C
:1000D000130A0008E1300008130A0008130A000898
:1000E000130A0008130A0008130A0008130A00087C
:1000F000130A0008130A0008130A0008130A00086C
:10010000130A0008130A0008130A0008130A00085B
:10011000130A0008130A0008130A0008130A00084B
:10012000130A0008130A00083DAA0008130A000871
:10013000DFF80CD00DF024F9004800472106000834
:10014000808500202DE9F05FDDF828C0DDF830E083
:10015000DEF8004030F902AB04F580590AEB69394A
:1001600009F30F0B23F802BBCBF1000B0FFA8BFB4B
:10017000B1F90070DEF8045007FB0A55B2F90080AF
:1001800008FB0B54CEF80040B1F90270DEF80840CD
:1001900007FB0A44B2F9028008FB0B45CEF8045075
:1001A000B1F90470DEF80C5007FB0A55B2F904806F
:1001B00008FB0B54CEF80840B1F90670DEF8104089
:1001C00007FB0A44B2F9068008FB0B45CEF80C5039
:1001D000B1F90870DEF8145007FB0A55B2F908802F
:1001E00008FB0B54CEF81040B1F90A70DEF8184045
:1001F00007FB0A44B2F90A8008FB0B45CEF81450FD
:10020000B1F90C70DEF81C5007FB0A55B2F90C80EE
:1002100008FB0B54CEF81840B1F90E70DEF8204000
:1002200007FB0A44B2F90E8008FB0B45CEF81C50C0
:10023000B1F91070DEF8245007FB0A55B2F91080AE
:1002400008FB0B54CEF82040B1F9127007FB0AF7F7
:10025000B2F9128008FB0BF8B844CEF82480BCF148
:10026000010C7FF475AFBDE8F09F2DE9F041DDF89A
:100270001CE0DEF8005030F9028B05F5805708EBE2
:10028000673808F30F0622F8026BC6F1000636B293
:10029000B1F90070DEF8044007FB0645CEF80050C7
:1002A000B1F90270DEF8085007FB0654CEF804409E
:1002B000B1F90470DEF80C4007FB0645CEF8085093
:1002C000B1F90670DEF8105007FB0654CEF80C406A
:1002D000B1F90870DEF8144007FB0645CEF810505F
:1002E000B1F90A70DEF8185007FB0654CEF8144036
:1002F000B1F90C70DEF81C4007FB0645CEF818502B
:10030000B1F90E70DEF8205007FB0654CEF81C4001
:10031000B1F91070DEF8244007FB0645CEF82050F6
:10032000B1F9127007FB06F7CEF824705B1EA0D15E
:10033000BDE8F0812DE9F0414FF000064FF00003D9
:1003400030F9024B31F9027B04FB073330F9025BD1
:1003500031F9028B05FB083330F9024B31F9027B8E
:1003600004FB073330F9025B31F9028B05FB0833DC
:1003700006EBA3164FF0000330F9024B31F9027B74
:1003800004FB073330F9025B31F9028B05FB0833BC
:1003900030F9024B31F9027B04FB073330F9025B81
:1003A00031F9028B05FB083306EBA3164FF000036F
:1003B00030F9024B31F9027B04FB073330F9025B61
:1003C00031F9028B05FB083330F9024B31F9027B1E
:1003D00004FB073330F9025B31F9028B05FB08336C
:1003E00006EBA3164FF0000330F9024B31F9027B04
:1003F00004FB073330F9025B31F9028B05FB08334C
:1004000030F9024B31F9027B04FB073330F9025B10
:1004100031F9028B05FB083306EBA3164FF00003FE
:1004200030F9024B31F9027B04FB073330F9025BF0
:1004300031F9028B05FB083330F9024B31F9027BAD
:1004400004FB073330F9025B31F9028B05FB0833FB
:1004500006EBA3164FF0000330F9024B31F9027B93
:1004600004FB073330F9025B31F9028B05FB0833DB
:1004700030F9024B31F9027B04FB073330F9025BA0
:1004800031F9028B05FB083306EBA3164FF000038E
:1004900030F9024B31F9027B04FB073330F9025B80
:1004A00031F9028B05FB083330F9024B31F9027B3D
:1004B00004FB073330F9025B31F9028B05FB08338B
:1004C00006EBA3164FF0000330F9024B31F9027B23
:1004D00004FB073330F9025B31F9028B05FB08336B
:1004E00030F9024B31F9027B04FB073330F9025B30
:1004F00031F9028B05FB083306EBA3164FF000031E
:1005000030F9024B31F9027B04FB073330F9025B0F
:1005100031F9028B05FB083330F9024B31F9027BCC
:1005200004FB073330F9025B31F9028B05FB08331A
:1005300006EBA3164FF0000330F9024B31F9027BB2
:1005400004FB073330F9025B31F9028B05FB0833FA
:1005500030F9024B31F9027B04FB073330F9025BBF
:1005600031F9028B05FB083306EBA3163046BDE8D4
:10057000F08100002DE9F0474FF00006089A31F9AC
:10058000027B31F9028BB0F90040B0F9025004FB54
:1005900007F305FB083331F9027BB0F9044031F968
:1005A000028BB0F9065004FB073305FB083331F921
:1005B000027BB0F9084031F9028BB0F90A5004FB14
:1005C000073305FB083331F9027BB0F90C4031F9F0
:1005D000028BB0F90E5004FB073305FB083331F9E9
:1005E000027BB0F9104031F9028BB0F9125004FBD4
:1005F000073305FB083352F8044BC3EB6403012EA9
:10060000AEBF73459E46B246761C202EB7DB0A9BD2
:10061000C3F800A00B9BC3F800E0BDE8F087000022
:100620001CB54FF4A06000F0F9F902F095FC4FF40E
:10063000165002F009FD0AF041F80AF01AF90AF022
:1006400053F90AF0B1F90AF02BFA0CF015FB0BF094
:10065000EEFD4FF478404A4908804AA010210B462D
:10066000C822CDE9001032213C200CF0D1FA48A07C
:1006700010210B46C822CDE9001046213C200CF089
:10068000C7FA48A010210B46C822CDE900105A2114
:100690003C200CF0BDFA44A010210B46C822CDE945
:1006A00000106E213C200CF0B3FA18E041A010219C
:1006B0000B46C822CDE9001082213C200CF0A8FA9C
:1006C000C82002F086FC4FF6FF709223EF228221B1
:1006D00000903C200BF0DFFFC82002F07AFC0CF009
:1006E0006AFB0028E2D137A010210B46C822CDE9D1
:1006F000001082213C200CF08BFA3BE000200AF035
:1007000012F93349087008460078012802D00228FF
:100710002ED116E000202E4908700CF008FC2DA008
:1007200010212023EF22CDE90010AA213C200CF05B
:100730006FFA09F0D7FF0AF0B0F8002029490860E5
:1007400017E00020224908700CF0CBFB26A01021F6
:100750002023EF22CDE90010AA213C200CF058FA0A
:1007600009F0B2FF0AF08BF800202349086000E08E
:1007700000BF00BFC2E700BFFEE700BFFEE700000A
:10078000580000204D696E692053544D33320000EB
:10079000576972656C65737320696E746572636FF7
:1007A0006E0000004C584800323032312F31312F6A
:1007B000340000004E524632344C303120457272C3
:1007C0006F7200004E524632344C3031204F4B0095
:1007D0000000002053656E64656420444154413A32
:1007E00000000000A0012142526563656976652022
:1007F000444154413A00000088812242704700BFC2
:10080000FEE700BFFEE700BFFEE700BFFEE7704760
:1008100070477047704700000CB5002001900090B1
:100820006C48006840F480306A49086000BF69483D
:10083000006800F4003000900198401C019000987E
:1008400018B90198B0F5A06FF1D16248006800F4C2
:10085000003010B10120009001E0002000900098CD
:10086000012843D15C48006840F010005A490860F4
:100870000846006820F0030008600846006840F061
:100880000200086053484068524948600846406882
:1008900048600846406840F4806048600846406808
:1008A00020F47C1048600846406840F4E810486036
:1008B0000846006840F08070086000BF4548006846
:1008C00000F000700028F9D04248406820F0030092
:1008D000404948600846406840F00200486000BF58
:1008E0003C48406800F00C000828F9D10CBD10B558
:1008F000FFF792FF10BD10B53648006840F00100C8
:100900003449086008464068344908403149486025
:1009100008460068324908402E49086008460068C9
:1009200020F4802008600846406820F4FE004860FB
:100930004FF41F008860FFF7DAFF4FF0006029498D
:10094000086010BD10B5002100200022214B5B681B
:1009500003F00C0121B1042906D0082928D107E0B1
:10096000214B224C236027E01F4B204C236023E0C7
:10097000184B5B6803F47010164B5B6803F480320D
:10098000022303EB904022B9194B4343174C2360D9
:100990000DE0104B5B6803F4003323B1144B434369
:1009A000124C236003E0104B4343104C236003E0E0
:1009B0000D4B0E4C236000BF00BF064B5B68C3F3BA
:1009C00003130C4CE15C094B1B68CB40074C2360C4
:1009D00010BD000000100240002002400000FFF89F
:1009E000FFFFF6FE08ED00E000127A00080000208C
:1009F00000093D000C0000200648804706480047DB
:100A0000FEE7FEE7FEE7FEE7FEE7FEE7FEE7FEE7BE
:100A1000FEE7FEE7F708000831010008314901430D
:100A2000314A1160704770B5002100230F22C4784D
:100A300004B32D4C246804F4E064C4F5E064210A96
:100A4000C1F10403CA40447804FA03F184781440E5
:100A500021430901254C0678A155047804F01F05AF
:100A60000124AC4005786D11AD0005F1E025C5F815
:100A7000004109E0047804F01F050124AC401C4D3E
:100A80000678761145F8264070BD1A4A0A4002439E
:100A9000154B1B1F1A60704739B1134A121D12689B
:100AA0000243114B1B1D1A6006E00F4A121D12680B
:100AB00082430D4B1B1D1A607047042808D14FF06C
:100AC000E021096941F004014FF0E022116107E0E3
:100AD0004FF0E021096921F004014FF0E02211619B
:100AE000704700000000FA050CED00E000E400E0B3
:100AF00080E100E080FFFF1F10B50446FA48844201
:100B000008D10121401500F045FF0021601500F0DB
:100B100041FF17E0F548844208D10121001500F09B
:100B200039FF0021201500F035FF0BE0F04884422A
:100B300008D10121C80300F02DFF00214FF400402F
:100B400000F028FF10BD30B5024600200023506899
:100B5000E84C20400D790C6844EA0524204350609D
:100B60009068E54C2040D1E902542C434D7944EA89
:100B7000450420439060D06A20F470000C7C641E11
:100B8000E4B2234340EA0350D06230BD002101604B
:100B9000017141718160C16001210174704721B10F
:100BA000826842F00102826003E0826822F0010262
:100BB0008260704721B1826842F48072826003E0F3
:100BC000826822F480728260704710B50023CBB235
:100BD0001AB144681C43446002E044689C4344608A
:100BE00010BD816841F00801816070470146002016
:100BF0008A6802F008020AB1012000E00020704774
:100C0000816841F0040181607047014600208A68D4
:100C100002F004020AB1012000E00020704721B177
:100C2000826842F4A002826003E0826822F4A0029B
:100C300082607047014600208A6802F480020AB18F
:100C4000012000E00020704710B50A460021002373
:100C5000416821F46041531E41EA4331416010BDB7
:100C600021B1426842F40062426003E0426822F42B
:100C7000006242607047F0B504460D460020002136
:100C8000092D11DDE068A5F10A0606EB46070726E7
:100C900006FA07F18843A5F10A0606EB460603FAB1
:100CA00006F10843E0600CE0206905EB45070726E4
:100CB00006FA07F1884305EB450603FA06F10843F7
:100CC0002061072A0FDA606B561E06EB86071F2687
:100CD00006FA07F18843561E06EB860605FA06F16A
:100CE0000843606322E00D2A0FDA206BD61F06EB63
:100CF00086071F2606FA07F18843D61F06EB8606ED
:100D000005FA06F10843206310E0E06AA2F10D063F
:100D100006EB86071F2606FA07F18843A2F10D06A7
:100D200006EB860605FA06F10843E062F0BD21B144
:100D3000826842F48012826003E0826822F48012AA
:100D4000826070470146C86C80B2704766484C307C
:100D50000068704721B1426842F48062426003E05B
:100D6000426822F480624260704721B1426842F4D6
:100D70008052426003E0426822F480524260704731
:100D80000A460021816821F4E041114381607047E7
:100D900021B1826842F40042826003E0826822F45A
:100DA00000428260704721B1826842F40212826080
:100DB00003E0826822F4021282607047014600203C
:100DC0008A6802F400120AB1012000E00020704796
:100DD000F0B504461546002000220026092911DD41
:100DE000E068A1F10A0707EB470C072707FA0CF2A6
:100DF0009043A1F10A0707EB470703FA07F21043F4
:100E0000E0600CE0206901EB410C072707FA0CF2C7
:100E1000904301EB410703FA07F210432061A06BF6
:100E2000C0F30156EF1C06F1010CA7EB0C0707EB12
:100E3000870C1F2707FA0CF29043EF1C06F1010CF8
:100E4000A7EB0C0707EB870701FA07F21043A06333
:100E5000F0BD10B50A4600210023816B21F440113A
:100E6000531E41EA0351816310BD08B5002300936E
:100E70000090009B0B440093009B1A6008BD08B5CE
:100E8000024600200090009201F12800009B1844C7
:100E900000900098006880B208BD0A4600214168B1
:100EA000164B19401143416070474162826270479E
:100EB0000A460021416821F01F011143416070473B
:100EC00040B109490831096841F40001064A083275
:100ED000116007E004490831096821F40001024A61
:100EE00008321160704700000024014000280140D2
:100EF000003C0140FFFEF0FFFDF7F1FFFFFD3FFF6B
:100F00000246002013680B400BB1012000E00020D6
:100F10007047CA430260704770B502460020002344
:100F200000240B125568CEB205EA060415681D4070
:100F300015B10CB1012000E0002070BD00220A12A2
:100F4000D34303607047000010B50121480700F04B
:100F50002EFD00214FF0005000F029FD10BD30B5EE
:100F6000002200235A4C226840F6FE748440A243BB
:100F7000D1E900452C438D682C43CD6844EA050334
:100F800003FA00F42243524C226030BD002101607C
:100F900041608160C160704739B14D4A12680123D8
:100FA00083401A434A4B1A6006E0494A12680123FB
:100FB00083409A43464B1A60704741B1444A1268D5
:100FC0004FF4805383401A43414B1A6007E0404A74
:100FD00012684FF4805383409A433D4B1A60704728
:100FE00010B551B13A4A121D126804090123A340F9
:100FF0001A43374B1B1D1A6009E0354A121D12684F
:1010000004090123A3409A43314B1B1D1A6010BDF4
:1010100040B12F49091D096841F003012C4A121DF6
:10102000116007E02A49091D096821F00301284AD7
:10103000121D1160704710B53AB1254B1B6801FABB
:1010400000F42343224C236006E0214B1B6801FA85
:1010500000F4A3431E4C236010BD08B5002200928B
:101060001B4A009200F10802009B1A440092009A69
:10107000116008BD08B500220092154A009200F1E7
:101080001402009B1A440092009A116008BD30B50A
:1010900000240023082802D142EA012401E042EAA8
:1010A00001440B4B00F120052B441C6030BD08B5FA
:1010B000014600200090064800902C2000EB910093
:1010C000009A104400900098006880B208BD0000AB
:1010D0000074004001684FF6FE721140016000216B
:1010E000016041608160C1608D49884208D18C49AE
:1010F0000839496841F00F01894A083A51608AE08D
:1011000087491431884208D185490839496841F036
:10111000F001834A083A51607DE0814928318842D4
:1011200008D17F490839496841F470617C4A083A1E
:10113000516070E07A493C31884208D178490839D9
:10114000496841F47041764A083A516063E0744955
:101150005031884208D172490839496841F47021F8
:101160006F4A083A516056E06D496431884208D1AF
:101170006B490839496841F47001694A083A51607D
:1011800049E067497831884208D16549083949689A
:1011900041F07061624A083A51603CE0614988421E
:1011A00006D1011F096841F00F01021F116032E0F2
:1011B0005C491431884208D15A49091F096841F035
:1011C000F001584A121F116025E056492831884223
:1011D00008D15449091F096841F47061514A121F2E
:1011E000116018E04F493C31884208D14D49091F30
:1011F000096841F470414B4A121F11600BE04949E4
:101200005031884207D14749091F096841F47021CC
:10121000444A121F1160704710B50022026847F659
:10122000F0739A430C6A8B6823430C6923434C691F
:1012300023438C692343CC6923434C6A23438C6A40
:1012400023431A430260CB6843600B6883604B689A
:10125000C36010BD0021016041608160C160016117
:1012600041618161C161016241628162704721B166
:10127000026842F00102026004E002684FF6FE7369
:101280001A40026070471AB103680B43036002E022
:1012900003688B43036070474160704701464868AC
:1012A00080B2704701460020002201F080531BB13C
:1012B0001C4B083B1A6802E0194B083B1A6802EA0B
:1012C00001030BB1012000E00020704700F08051C5
:1012D00019B11449091F086002E011490839486032
:1012E000704701460020002201F080531BB10D4BD6
:1012F000083B1A6802E00A4B083B1A6802EA01033D
:101300000BB1012000E00020704700F0805119B1BE
:101310000449091F086002E0014908394860704724
:10132000080002400804024010B50446CC4884423C
:1013300008D10121042000F02DFB0021042000F041
:1013400029FB46E0C748844208D10121082000F06B
:1013500021FB0021082000F01DFB3AE0C248844236
:1013600008D10121102000F015FB0021102000F011
:1013700011FB2EE0BD48844208D10121202000F05D
:1013800009FB0021202000F005FB22E0B848844240
:1013900008D10121402000F0FDFA0021402000F09A
:1013A000F9FA16E0B348844208D10121802000F008
:1013B000F1FA0021802000F0EDFA0AE0AE48844204
:1013C00007D10121801500F0E5FA0021A01500F0F9
:1013D000E1FA10BD10B50121084600F0DBFA00214A
:1013E000012000F0D7FA10BD2DE9F041024600259A
:1013F0000026002000230024002791F803C00CF0F1
:101400000F0591F803C00CF0100CBCF1000F03D0D5
:1014100091F802C04CEA050591F800C0BCF1000F3C
:1014200031D0146800202BE04FF0010C0CFA00F3CF
:10143000B1F800C00CEA03069E4220D183004FF0B1
:101440000F0C0CFA03F7BC4305FA03FC4CEA040446
:1014500091F803C0BCF1280F06D14FF0010C0CFA33
:1014600000FCC2F814C00AE091F803C0BCF1480FB8
:1014700005D14FF0010C0CFA00FCC2F810C0401C62
:101480000828D1D31460B1F800C0BCF1FF0F34DDDF
:10149000546800202EE000F1080C4FF0010808FA13
:1014A0000CF3B1F800C00CEA03069E4221D1830080
:1014B0004FF00F0C0CFA03F7BC4305FA03FC4CEA9F
:1014C000040491F803C0BCF1280F05D100F1080C09
:1014D00008FA0CF8C2F8148091F803C0BCF1480F68
:1014E00007D100F1080C4FF0010808FA0CF8C2F817
:1014F0001080401C0828CED35460BDE8F0814FF620
:10150000FF710180022181700421C1707047024681
:10151000002093680B400BB1012000E000207047D1
:101520000146886880B2704702460020D3680B40AD
:101530000BB1012000E0002070470146C86880B26E
:10154000704701617047416170470AB1016100E075
:1015500041617047C16070474FF480320A43826135
:101560008161826182698269704702460020434B33
:1015700018684FF68073184040EA021008433F4B4A
:10158000186070473E49C8617047F0B50A460023AD
:1015900000240021002500F00046B6F1004F02D1E2
:1015A000364EF16901E0354E7168C0F3034583B2F0
:1015B00000F44016B6F5401F08D121F070612F4E9F
:1015C000766826F070662D4F7E6012E000F480167B
:1015D000B6F5801F06D1032606FA05F4A14341F0B3
:1015E000706106E0460D360103FA06F6B14341F09C
:1015F000706122B1460D360103FA06F6314300F060
:101600000046B6F1004F02D11C4EF16101E01B4EC5
:101610007160F0BD30B500228B071C0F0F2303FA59
:1016200004F2164B08338C1053F824309343134CB8
:1016300008348D1044F8253023468C1053F824309C
:101640008C07240F00FA04F423430C4C08348D104B
:1016500044F8253030BD0A49DC310860704700008D
:1016600000080140000C014000100140001401403E
:1016700000180140001C0140002001400000014012
:1016800000002042DF48006840F00100DD490860AA
:1016900008464068DC490840DA4948600846006866
:1016A000DA490840D74908600846006820F48020DD
:1016B00008600846406820F4FE0048604FF41F00B0
:1016C00088607047CF49096821F48031CD4A1160A4
:1016D0001146096821F480211160B0F5803F03D0E4
:1016E000B0F5802F0ED106E0C649096841F480317B
:1016F000C44A116007E0C349096841F4A021C14A06
:10170000116000E000BF00BF704710B50146002225
:10171000002300204A11012A02D1BA4C236806E0B6
:10172000022A02D1B74C236A01E0B64C636A01F089
:101730001F02012494401C400CB1012000E0002055
:1017400010BD38B5002000900024002500BF3120D6
:10175000FFF7DBFF05460098401C00900098B0F5AD
:10176000A06F01D0002DF2D03120FFF7CEFF08B1DD
:10177000012400E00024204638BD01460020A14A93
:10178000106820F0F80040EAC10010607047A049DE
:1017900008607047024600209A4B586820F47C107D
:1017A00042EA01031843974B58607047984908660E
:1017B000704701460020934A506820F00300084318
:1017C000506070478F48406800F00C007047014639
:1017D00000208C4A506820F0F000084350607047A9
:1017E00001460020874A506820F4E06008435060BA
:1017F000704701460020834A506820F4605040EA58
:10180000C1005060704729B17E4A527A02437D4B35
:101810005A7204E07B4A527A82437A4B5A7270477A
:101820007B49D8310860704701460020754A5068EE
:1018300020F440400843506070470021714A203234
:101840001170704A82F82010012802D004280AD1B1
:1018500004E001216B4A2032117005E00521694A3C
:101860002032117000E000BF00BF70476949086076
:1018700070476449096A0143624A116270476549C9
:1018800044390860704730B500210022002400234D
:101890005C4D6D6805F00C0121B1042905D00829C3
:1018A00023D105E05C4D056022E05B4D05601FE043
:1018B000544D6D6805F47012524D6D6805F4803416
:1018C000022505EB92421CB9544D554305600BE0CF
:1018D0004C4D6D6805F400351DB1504D5543056004
:1018E00002E04D4D5543056002E04B4D056000BFE1
:1018F00000BF444D6D6805F0F0010909484D6B5C6F
:101900000568DD4045603F4D6D6805F4E061090AFA
:10191000434D6B5C4568DD4085603A4D6D6805F46C
:101920006051C90A3E4D6B5C4568DD40C560354D70
:101930006D6805F44041890B3A4D6B5CC568B5FB99
:10194000F3F5056130BD29B12E4A526902432D4B92
:101950005A6104E02B4A526982432A4B5A6170470C
:1019600029B1284A92690243264B9A6104E0254A2C
:1019700092698243234B9A61704729B1214AD26907
:101980000243204BDA6104E01E4AD26982431D4BB8
:10199000DA61704729B11B4AD2680243194BDA60F9
:1019A00004E0184AD2688243164BDA60704729B1C6
:1019B000144A12690243134B1A6104E0114A126976
:1019C0008243104B1A6170471249403908607047D2
:1019D0000F49C86470470B49C87170470948406A8D
:1019E00040F0807007494862704701460020054A70
:1019F00092680A400AB1012000E0002070470149C6
:101A000088727047001002400000FFF8FFFFF6FEEA
:101A1000000042428004424200127A0000093D0068
:101A20001C0000202C00002010B50446BE48844253
:101A300008D101218014FFF7ADFF0021A014FFF7AA
:101A4000A9FF16E0B948844208D101210014FFF72C
:101A5000AEFF00212014FFF7AAFF0AE0B448844239
:101A600007D10121C013FFF7A2FF0021E013FFF708
:101A70009EFF10BD10B50022028802F441520B886F
:101A80004C8823438C882343CC8823430C892343ED
:101A90004C8923438C892343CC8923431A430280F6
:101AA000838B4FF2FF74234083830B8A038210BD24
:101AB0002DE9F04F85B005460C464FF0000902278E
:101AC0004FF000084FF0010B0026B246A88B4FF2F2
:101AD00040010840A88302202884B5F81C90A06823
:101AE000022801D100BF38E0A08810B94FF0010BE7
:101AF00001E04FF0020B8D48854200D100E000BFAD
:101B00006846FFF7C0FEDDF800A0E088B0F5007F72
:101B10000AD14FEA1A2000EB80004000A168B0FB18
:101B2000F1F0401D86B20BE04FEA4B10BAFBF0F02B
:101B300000EB80004000A168B0FBF1F0401D86B2D0
:101B40000A20B6FBF0F606F00108A6EB0800C0F389
:101B50004F074FF6FF7000EA0828022F01DBFF2F26
:101B600002DD02274FF00008E08840EA0800384311
:101B70002884A088A18908436188084321880843F4
:101B800040F4006040EA0909A5F81C9005B0BDE8E2
:101B9000F08F0021018041808180C18001814181DD
:101BA0008181C1810721018270470021018041802C
:101BB0008180C1800221816000218181704721B133
:101BC000028842F04002028004E002884FF6BF73B0
:101BD0001A400280704721B1828B42F48062828376
:101BE00004E0828B4FF6FF331A408283704730B592
:101BF000002400230C110125A540ABB21AB1858841
:101C00001D43858002E085889D43858030BD1AB1E3
:101C100083880B43838002E083888B4383807047F3
:101C2000818170470146888970474FF6FF62914273
:101C300004D0028842F48072028004E002884FF6E9
:101C4000FF631A400280704721B1828842F004028B
:101C5000828004E082884FF6FB731A4082807047CE
:101C600002884FF2FF731A40028002880A43028002
:101C70007047018841F480510180704721B102888A
:101C800042F40052028004E002884DF6FF731A40CD
:101C90000280704702460020012901D0108B00E02D
:101CA000908A70470146088A7047B1F5804F04D189
:101CB000028842F48042028004E002884BF6FF73FF
:101CC0001A40028070470246002013890B400BB176
:101CD000012000E000207047CA4302817047F0B540
:101CE0000246002000240023002501F00F070126F2
:101CF000BE40B4B20B1101269E40B3B2968806EAEC
:101D000003051689264016B10DB1012000E0002020
:101D1000F0BD10B5002201F00F040123A3409AB2D8
:101D2000D343038110BD0000003001400038004063
:101D3000003C004010B50446FE48844208D1012111
:101D4000C014FFF727FE0021E014FFF723FEC4E0D4
:101D5000B4F1804F08D101210846FFF728FE002189
:101D60000120FFF724FEB8E0F348844208D10121A6
:101D70000220FFF71CFE00210220FFF718FEACE056
:101D8000EE48844208D101210420FFF710FE002113
:101D90000420FFF70CFEA0E0E948844208D10121AD
:101DA0000820FFF704FE00210820FFF700FE94E062
:101DB000E448844208D101211020FFF7F8FD0021FA
:101DC0001020FFF7F4FD88E0DF48844208D10121AC
:101DD0002020FFF7ECFD00212020FFF7E8FD7CE04C
:101DE000DA48844208D101214014FFF7D3FD0021D5
:101DF0006014FFF7CFFD70E0D548844209D101217E
:101E0000C804FFF7C7FD00214FF40020FFF7C2FD13
:101E100063E0D048844209D101210805FFF7BAFDEB
:101E200000214FF48010FFF7B5FD56E0CA48844208
:101E300009D101214805FFF7ADFD00214FF4001045
:101E4000FFF7A8FD49E0C548844208D101214020A0
:101E5000FFF7ADFD00214020FFF7A9FD3DE0C048A0
:101E6000844208D101218020FFF7A1FD00218020BC
:101E7000FFF79DFD31E0BB48844208D10121801568
:101E8000FFF795FD0021A015FFF791FD25E0B6486D
:101E9000844209D101210804FFF77CFD00214FF4A1
:101EA0008030FFF777FD18E0B048844209D1012166
:101EB0004804FFF76FFD00214FF40030FFF76AFD83
:101EC0000BE0AB48844208D101218804FFF762FD92
:101ED00000214FF48020FFF75DFD10BD0022028835
:101EE000944B98420ED0994B98420BD0B0F1804F52
:101EF00008D0914B984205D0904B984202D0904B1D
:101F0000984204D14FF68F731A404B881A438D4B79
:101F1000984207D08C4B984204D04FF6FF431A40AA
:101F2000CB881A4302808B8883850B880385814B7D
:101F300098420BD0854B984208D08B4B984205D0E5
:101F40008A4B984202D08A4B984201D10B7A038681
:101F500001238382704770B5002400220023058C82
:101F60004FF6FE7635400584028C8388048B4FF64D
:101F70008F752C40B51E2C400D882C43751E2A40B1
:101F80000D892A434D882A436A4DA8420BD06F4DD4
:101F9000A84208D0744DA84205D0744DA84202D082
:101FA000734DA84213D14FF6F7752A404D892A4345
:101FB0004FF6FB752A408D882A434FF6FF652B406C
:101FC0004FF6FF552B408D892B43CD892B438380C2
:101FD0000483CD888586028470BD70B500240022FC
:101FE0000023058C4FF6EF7635400584028C8388FC
:101FF000048B48F6FF752C404FF6FF452C400D88AA
:102000004FF6FF7606EA05252C434FF6DF752A408A
:102010000D8906EA05152A434D8806EA05152A4367
:10202000444DA84202D0494DA8421DD14FF67F75BC
:102030002A404D894FF6FF7606EA05152A434FF6EA
:10204000BF752A408D8806EA05152A434FF6FF35ED
:102050002B404FF2FF752B408D8906EA85052B43F7
:10206000CD8906EA85052B4383800483CD880587C7
:10207000028470BD70B5002400220023058C4FF649
:10208000FF6635400584028C8388848B4FF68F75FC
:102090002C404FF6FC752C400D882C434FF6FF5515
:1020A0002A400D894FF6FF7606EA05252A434D881A
:1020B00006EA05252A431F4DA84202D0234DA84217
:1020C0001DD14FF2FF752A404D894FF6FF7606EA83
:1020D00005252A434FF6FF352A408D8806EA052557
:1020E0002A434EF6FF752B404DF6FF752B408D8928
:1020F00006EA05152B43CD8906EA05152B43838097
:102100008483CD888587028470BD70B5002200234A
:102110000024058C4EF6FF7635400584038C8488B8
:10212000828B48F6FF752A404FF6FF452A400D88FE
:1021300020E00000002C01400004004000080040A6
:10214000000C00400010004000140040003401402A
:10215000004C014000500140005401400018004074
:10216000001C0040002000400040014000440140AD
:10217000004801404FF6FF7606EA05252A434DF652
:10218000FF752B400D8906EA05352B434D8806EA7D
:1021900005352B43FA4DA84202D0FA4DA84208D18A
:1021A0004BF6FF752C408D894FF6FF7606EA8515B4
:1021B0002C4384808283CD88A0F84050038470BD76
:1021C000828B4FF2FF331A408283828B4FF6FF736C
:1021D00003EA01231A4382837047F0B50C46154683
:1021E000002200210026078C4EF6FF7C07EA0C0730
:1021F0000784828B018C4FF6FF7707EA043640F69E
:10220000FF473A404FF6FF7707EA05273A434FF674
:10221000FF7707EA03373A43D94FB8420ED0D94F78
:10222000B8420BD0B0F1804F08D0D74FB84205D09C
:10223000D64FB84202D0D64FB84206D14DF6FF77FE
:10224000394046F48057394305E047F6FF57394097
:1022500044F48057394382830184F0BD828B4FF66A
:10226000F3731A408283828B0A4382837047F0B5EE
:102270000C461546002200210026078C4FF6FF6C05
:1022800007EA0C070784828B018C4FF6FF7707EA79
:1022900004264FF60C773A404FF6FF7707EA03170C
:1022A0002F433A43B64FB8420ED0B64FB8420BD088
:1022B000B0F1804F08D0B44FB84205D0B34FB84208
:1022C00002D0B34FB84206D14FF6FF57394046F41B
:1022D0008077394305E04FF2FF57394044F4807767
:1022E000394382830184F0BD028B4FF2FF331A40E1
:1022F0000283028B4FF6FF7303EA01231A43028322
:102300007047F0B50C461546002200210026078CC8
:102310004FF6EF7C07EA0C070784028B018C4FF61F
:10232000FF7707EA041640F6FF473A404FF6FF777B
:1023300007EA03373A434FF6FF7707EA05273A43A0
:102340008F4FB8420ED08F4FB8420BD0B0F1804FB4
:1023500008D08D4FB84205D08C4FB84202D08C4F78
:10236000B84206D14FF6DF77394046F010073943BF
:1023700005E04FF65F77394044F010073943028398
:102380000184F0BD028B4FF6F3731A400283028B77
:102390000A4302837047F0B50C461546002200211F
:1023A000068C4FF6FE773E400684028B018C4FF67A
:1023B0000C7632407E1C06EA03162E433243704EE2
:1023C000B0420ED06F4EB0420BD0B0F1804F08D06B
:1023D0006D4EB04205D06D4EB04202D06C4EB04250
:1023E00006D14FF6FD76314044F00106314305E059
:1023F0004FF6F576314044F0010631430283018403
:10240000F0BD70B505460C465D4885420ED05D486E
:1024100085420BD0B5F1804F08D05B48854205D08E
:102420005A48854202D05A48854200D100E000BF98
:10243000208850B92389A28861882846FFF7ABFF1E
:10244000E1882846FFF79EFF25E0208804280AD16E
:102450002389A28861882846FFF753FFE188284630
:10246000FFF742FF17E0208808280AD12389A288B5
:1024700061882846FFF7FBFEE1882846FFF7EEFE5D
:1024800009E02389A28861882846FFF7A6FEE18833
:102490002846FFF795FE70BD2DE9F04105460C4634
:1024A00000260127608808B9022600E00026A088DF
:1024B000012801D1022700E001272088A0B9238943
:1024C000A28861882846FFF766FFE1882846FFF763
:1024D00059FF23893A4631462846FFF712FFE18823
:1024E0002846FFF701FF13E02389A2886188284668
:1024F000FFF707FFE1882846FFF7F6FE23893A46F3
:1025000031462846FFF747FFE1882846FFF73AFFA4
:10251000BDE8F0810A884B881A438B881A43CB8820
:102520001A430B891A434B891A438B891A43A0F823
:10253000442070474FF6FF71818000210180C180E7
:102540004180017270470021018041808180C180FB
:10255000018141818181C1817047002101804180D9
:10256000012181800021C18001817047002101800B
:1025700041808180C180018141818181704700005B
:10258000002C0140003401400004004000080040DD
:10259000000C004021B1028842F00102028004E0F8
:1025A00002884FF6FE731A400280704731B1B0F8CE
:1025B000442042F40042A0F8442005E0B0F8442052
:1025C000C2F30E02A0F8442070471AB183890B436E
:1025D000838102E083898B438381704781827047C6
:1025E00041EA0203A0F8483070471AB183890B43CF
:1025F000838102E083898B438381704701894FF691
:10260000F8721140018170470A46002101894FF696
:102610008F73194011430181704730B504460D4650
:1026200029462046FFF7F0FF208940F0070020816F
:1026300030BD2DE9F04104460D4616461F46602D7B
:1026400006D13B46012231462046FFF75AFE05E0FF
:102650003B46012231462046FFF79DFE2946204693
:10266000FFF7D2FF208940F007002081BDE8F0810C
:1026700030B50C4600210189C9B24FF6FF7505EA55
:102680000325154325432943018130BD2DE9F04140
:1026900005460E4617469846002443463A463146BC
:1026A0002846FFF7E5FF2C894FF6F870044044F008
:1026B00007044FF68F70044044F070042C81BDE88D
:1026C000F081F0B504460D4616461F463B4632469D
:1026D00029462046FFF7CCFF208940F48040208126
:1026E000F0BD0185828270470A46002101884FF6BD
:1026F0008F731940114301807047F0B50C461546A1
:102700001E460021002200230189028B038C4FF614
:10271000F877394021434FF6FC473A4040F2011721
:102720003A434FF6DD773B404FF6FF7707EA06174F
:102730002F433B43018102830384F0BD0A460021FD
:10274000018B4FF68F7319401143018370470A467E
:102750000021018B48F6FF7319404FF6FF7303EA1F
:1027600002231943018370470A460021818B4FF6EB
:102770008F7319401143818370470A460021818B72
:1027800048F6FF7319404FF6FF7303EA022319431B
:102790008183704721B1028842F08002028004E008
:1027A00002884FF67F731A400280704721B18288F9
:1027B00042F00402828004E082884FF6FB731A40E4
:1027C0008280704721B1828842F00802828004E052
:1027D00082884FF6F7731A408280704721B1828851
:1027E00042F00102828004E082884FF6FE731A40B4
:1027F000828070470A460021018B4FF6F77319401B
:102800001143018370470A460021018B4FF2FF7389
:1028100019404FF6FF7303EA0223194301837047FF
:102820000A460021818B4FF6F773194011438183CB
:1028300070470A460021818B4FF2FF7319404FF613
:10284000FF7303EA02231943818370470A4600217C
:10285000018B4FF6FB7319401143018370470A4601
:102860000021018B4FF6FF3319404FF6FF7303EA47
:1028700002231943018370470A460021818B4FF6DA
:10288000FB7319401143818370470A460021818BF5
:102890004FF6FF3319404FF6FF7303EA0223194343
:1028A000818370470A460021018B4FF67F731940E0
:1028B0001143018370470A460021018BC1F30E01C9
:1028C0004FF6FF7303EA02231943018370470A4658
:1028D0000021818B4FF67F7319401143818370472C
:1028E0000A460021818BC1F30E014FF6FF7303EA04
:1028F00002231943818370470A460021018C4FF659
:10290000FD7319401143018470470A460021018C70
:102910004FF6F77319401143018470470A460021AE
:10292000018C4FF6DF7319404FF6FF7303EA021371
:102930001943018470470A460021018C4FF67F73CA
:1029400019404FF6FF7303EA0213194301847047DD
:102950000A460021018C4FF6FF5319404FF6FF73D2
:1029600003EA02231943018470470A460021018CBF
:102970004FF2FF7319404FF6FF7303EA0223194326
:10298000018470470A460021018C4DF6FF731940FF
:102990004FF6FF7303EA023319430184704730B5E1
:1029A000002301248C40A3B2048C9C430484048C37
:1029B00002FA01F5ADB22C43048430BD30B50023DA
:1029C00004248C40A3B2048C9C430484048C02FA3B
:1029D00001F5ADB22C43048430BD70B50346002030
:1029E00000241846183001258D40ACB21D8CA5433B
:1029F0001D8409B1082909D100EB6100056825F0A3
:102A0000700505600568154305600EE00D1FC5F3F0
:102A10004E052844056825F4E045056005684FF635
:102A2000FF7606EA02263543056070BD21B10288B3
:102A300042F00202028004E002884FF6FD731A4061
:102A40000280704721B1028842F00402028004E053
:102A500002884FF6FB731A400280704721B18288CA
:102A600042F08002828004E082884FF67F731A4031
:102A70008280704702884FF6F7731A4002800288FE
:102A80000A430280704782884FF68F731A40828013
:102A900082880A438280704702894FF6F8731A4091
:102AA000028102890A430281704702894FF67F73CF
:102AB0001A40028102890A4302817047818470476B
:102AC000818570478186704701877047818770478D
:102AD000A0F84010704702884FF6FF431A4002806A
:102AE00002880A43028070470146888E704701467B
:102AF000088F70470146888F70470146B1F8400043
:102B000070470146888C70470146088D7047024621
:102B10000020138A0B400BB1012000E00020704719
:102B2000CA430282704730B50246002000230024C9
:102B3000158A05EA0103958905EA010413B10CB170
:102B4000012000E0002030BDCA430282704700002F
:102B500010B50446FB48844209D101218803FEF7E1
:102B600019FF00214FF48040FEF714FF32E0F648D1
:102B7000844209D101214804FEF719FF00214FF4D6
:102B80000030FEF714FF25E0F048844209D101210E
:102B90008804FEF70CFF00214FF48020FEF707FFAA
:102BA00018E0EB48844209D10121C804FEF7FFFE7A
:102BB00000214FF40020FEF7FAFE0BE0E5488442C6
:102BC00008D101210805FEF7F2FE00214FF4801024
:102BD000FEF7EDFE10BD2DE9F04786B005460E4626
:102BE0000024A24600BFA1460027B08900B100BF63
:102BF0002F462C8A4CF6FF700440F08804432C8248
:102C0000AC894EF6F3100440B088318908437189CD
:102C100008430443AC81AC8A4FF6FF400440B089BE
:102C20000443AC8201A8FEF72EFEC648874202D1BB
:102C3000DDF810A001E0DDF80CA0A88900F4004048
:102C400040B10AEBCA0000EB0A1031684900B0FB42
:102C5000F1F807E00AEBCA0000EB0A1031688900BE
:102C6000B0FBF1F86420B8FBF0F004012009642106
:102C700001FB1089A88900F4004040B1322000EB2C
:102C8000C900B0FBF1F000F00700044308E0322077
:102C900000EB09106421B0FBF1F000F00F000443D9
:102CA0002C8106B0BDE8F0874FF416510160002179
:102CB0008180C18001810C21418100218181704787
:102CC00010B502460020108A4FF2FF0318400B880F
:102CD0004C8823438C882343CC8823431843108299
:102CE00010BD0021018041808180C180704721B1E9
:102CF000828942F40052828104E082894DF6FF739A
:102D00001A4082817047F0B5034600240026002552
:102D1000002040F66A17B94200D100BF1846C1F33F
:102D2000421401F01F06012707FA06F5012C01D114
:102D30000C3004E0022C01D1103000E014301AB144
:102D400007682F43076002E00768AF430760F0BDE4
:102D50001AB1838A0B43838202E0838A8B43838286
:102D60007047028A4FF6F0731A400282028A0A43C1
:102D70000282704782894FF2FF731A4082818289F2
:102D80000A438281704721B1828942F00202828126
:102D900004E082894FF6FD731A4082817047028AEF
:102DA0004FF6DF731A400282028A0A43028270479A
:102DB00021B1028A42F48042028204E0028A4BF688
:102DC000FF731A4002827047C1F308028280704785
:102DD00001468888C0F308007047818941F00101ED
:102DE00081817047028BD2B20283028B42EA0122B8
:102DF00002837047028B02F47F420283028B0A43F4
:102E00000283704721B1828A42F02002828204E06C
:102E1000828A4FF6DF731A408282704721B1828A1C
:102E200042F01002828204E0828A4FF6EF731A4069
:102E30008282704721B1828A42F00802828204E0D5
:102E4000828A4FF6F7731A408282704721B18289D5
:102E500042F40042828103E08289C2F30E02828141
:102E6000704721B1828A42F40062828204E0828A41
:102E70004FF2FF731A4082827047828A4FF6FB73CB
:102E80001A408282828A0A438282704721B1828AF2
:102E900042F00202828204E0828A4FF6FD731A40F9
:102EA0008282704702460020B1F5007F00D100BF4A
:102EB00013880B400BB1012000E00020704701F4A3
:102EC0000072B2F5007F00D100BFCA430280704794
:102ED00070B50246002400230025002040F66A1643
:102EE000B14200D100BFC1F3421501F01F0301261A
:102EF00006FA03F3012D02D19689334006E0022D34
:102F000002D1168A334001E0968A33400C12012622
:102F100006FA04F41688344013B10CB1012000E025
:102F2000002070BD10B50022002340F66A14A142B3
:102F300000D100BF0A1201249440A3B2DC430480F4
:102F400010BD00000038014000440040004800402F
:102F5000004C00400050004010B56FF00400FDF739
:102F6000ACFD2E4800682E49B0FBF1F02D490870E9
:102F70000846007800EB4001C1EBC0104FF6FF712E
:102F800001EAC0002849088010BD0146254A127890
:102F90004A434FF0E0235A6100229A611A461269AF
:102FA00042F001021A6100BF4FF0E022106900F008
:102FB00001021AB100F48032002AF5D04FF0E0226D
:102FC000126922F001024FF0E0231A6100229A6197
:102FD00070470146144A12884A434FF0E0235A6171
:102FE00000229A611A46126942F001021A6100BF7A
:102FF0004FF0E022106900F001021AB100F48032B3
:10300000002AF5D04FF0E022126922F001024FF0C1
:10301000E0231A6100229A61704700000800002036
:1030200000127A00300000203200002000BF7047FC
:1030300000BF4A4A128802F04002002AF9D0C2B208
:10304000464B1B1D1A80704710B586B004460121FF
:1030500044F20400FEF784FC4FF40070ADF8140055
:1030600003208DF8160018208DF8170005A93C489C
:10307000FEF7BAF94FF48060ADF8140004208DF823
:10308000170005A93648FEF7AFF925208DF8000096
:1030900003208DF801008DF8020001208DF8030057
:1030A0006846FDF7C0FC01940020ADF80800ADF8BB
:1030B0000A00ADF80C00ADF810000C20ADF80E00C1
:1030C00001A92648FFF787FD012240F22551234838
:1030D000FFF719FE01212148FFF709FE06B010BDD8
:1030E00010B540F225511D48FFF7F2FE10B31B4802
:1030F000FFF76EFEC4B21B48008800F40040C8B958
:103100001848008800F4804060B10A2C03D00020E9
:103110001449088020E01348008840F40040114919
:10312000088019E00D2C06D10E48008840F480403C
:103130000C49088010E00B480088C0F30D000A49D4
:103140000C5408480088401C06490880084600883E
:10315000C72801DD0020088010BD000000380140B4
:1031600000080140380000204C04002000210268C3
:10317000117041608160C1604161704770B5044663
:1031800014250121284609F0B7FF2060206800B906
:1031900070BD1420A061012020612046FFF7E6FFEA
:1031A00000BFF5E730B503460D4614461D609C612F
:1031B000002018611846FFF7D9FF30BD0160826119
:1031C00000230361D300436000238360C360436135
:1031D000704770B50446206928B1256828460AF072
:1031E00063F900BF00BF70BD00218160C160416113
:1031F00070472DE9F0470446884617463E46A069C9
:10320000B04217DAEEA000BF206980B131462068D5
:1032100000F086FA8146B9F1000F03D0A661C4F828
:10322000009003E0A669F0A000BF00BF02E0FAA092
:1032300000BFA669002504E018F80500216848557C
:103240006D1CB542F8DBF00060600020A060E0601B
:103250006061BDE8F0872DE9F04104466068C01D5B
:10326000C510A06800280FDDA668236833442668CF
:10327000F61AA368EB1A002707FB0632A668236834
:103280009919184609F006FFD4E90101A0EBC10025
:1032900060600020A060BDE8F0812DE9F0470446A1
:1032A000884617463E466068C01D06EBE000A169EF
:1032B000884220DD2069D8B1626806EBE202511C29
:1032C000206800F02DFA8246BAF1000F07D060683E
:1032D00006EBE000401CA061C4F800A007E06168B4
:1032E000A069A0EBE100461ED8A000BF00BF02E02D
:1032F000C9A000BFA6692046FFF7ADFF60684FEA8E
:10330000E009002506E018F8050009EB0502216830
:1033100088546D1CB542F6DB606800EBC600606047
:10332000BDE8F0872DE9F04704460E461546B14644
:10333000D4E90201294400EBE100A16988421CDBC9
:10334000D1A000BF2069A8B1A069401D00EB4000DA
:1033500047103946206800F0E3F98046B8F1000FC5
:1033600003D0A761C4F8008003E0CFA000BFBDE890
:10337000F08702E0D7A000BFF9E724E0691E29FA30
:1033800001F101F00100A2682168895CE268C2F1E4
:10339000070200FA02F21143A3682268D154E168DF
:1033A000491CE160E168082908D10021E160A168B9
:1033B000491CA1600021A3682268D1546168491C9E
:1033C00061606D1E00BF002DD8D100BFCFE710B5E2
:1033D0000446E06820B1012200212046FFF7A2FF49
:1033E00004E0012211462046FFF79CFFE068002818
:1033F000F7D110BD2DE9F05F0446884617463E46DA
:10340000D4F80CA0D4F80890D4F804B02046FFF704
:10341000DEFFC4F80CA0C4F80890C4F804B06068DB
:10342000C01DB6EBE00F02DD6068C01DC6100025B0
:1034300004E02068405D08F805006D1CB542F8DB2B
:103440003046BDE8F09F70B503460C4610465D68F7
:10345000B0EBE50F01DD5D68E810002103E01D68B9
:103460006D5C6554491C8142F9DBDD68002D04DD8B
:103470001D682D5C1E68357002E000251E683570E1
:1034800000259D601D7905F007055D6070BD10B5D4
:1034900002460023D2E9024000EBC400084454680D
:1034A000A04201DD01205061506908B1002010BD2B
:1034B00016E05B0094681068005DD468C4F10704EE
:1034C000204100F001000343D068401CD060D06868
:1034D000082804D10020D0609068401C9060491EEC
:1034E0000029E6D11846E2E770B506460C462146AB
:1034F0003046FFF7CCFF0546601E25FA00F018B1F4
:103500004FF0FF30A0400543284670BDF0B502469D
:103510000024D2E9027000EBC70008445768B842A3
:1035200001DD01205061506908B10020F0BDD36871
:10353000956816680DE06400705DC3F107073841B7
:1035400000F0010004435B1C082B01D100236D1C1B
:10355000491E0029EFD12046E8E70146D1E90220C3
:1035600000EBC200401C4A68904201DD0120486126
:10357000486908B1002070478A680868805CCA689A
:10358000C2F10702104100F00100F4E7D0E9023275
:1035900002EBC3020A4443689A4201DC426912B159
:1035A000012242617047D0E902230B4402EBE3029F
:1035B0008260027B0A4402F00702C26000BFF1E7AA
:1035C0005061636B6574206973206C61726765720A
:1035D000207468616E20616C6C6F63617465642037
:1035E0006275666665720000436F756C64206E6F6D
:1035F0007420726573697A6520696E7075742062D3
:1036000075666665723A207472756E636174696E70
:103610006720696E70757400446F206E6F74206F40
:10362000776E20696E707574206275666665723A91
:10363000207472756E636174696E67206F7665724F
:1036400073697A6520696E7075740000436F756CDC
:1036500064206E6F7420726573697A6520696E707C
:103660007574206275666665723A207472756E6351
:103670006174696E67206F76657273697A65206917
:103680006E70757400000000427566666572207485
:103690006F6F20736D616C6C20746F207061636B51
:1036A0002062697473000000436F756C64206E6F54
:1036B0007420726573697A6520696E707574206212
:1036C00075666665723A206E6F74207061636B690F
:1036D0006E670000446F206E6F74206F776E2069F4
:1036E0006E707574206275666665723A206E6F74CE
:1036F000207061636B696E670000000001464869D5
:1037000010B14FF0FF307047D1E9022000EBC2004A
:103710004A68101AF7E701464868C01DC010704794
:1037200070B504460D46294620460AF0ABF870BD38
:103730002DE9F04303460D461746B5F90060288889
:1037400050B9002103E0002023F81100491CB942C0
:10375000F9DB0020BDE8F083002170E001F1010CED
:1037600035F91CC04FEA4C3CCCF10000002208E0C7
:1037700033F912C0A1EB020835F918800CFB1800D0
:10378000521C8A42F4DB06F1010C00EB6C0806F1D6
:10379000080C0FFA8CFC98FBFCFC0FFA8CF423F855
:1037A0001140002228E033F912C033F81290A1F141
:1037B0000108A8EB020833F9188008FB04F808F5A3
:1037C000805809EB68380FFA88F823F81280A1F1C5
:1037D0000108A8EB020833F8189004FB0CF808F570
:1037E000805809EB68380FFA88F9A1F10108A8EBB5
:1037F000020823F81890521CB2EB610FD3DB01F0E2
:10380000010CBCF1000F0DD033F8128033F912C057
:103810000CFB04FC0CF5805C08EB6C3C0FFA8CFC98
:1038200023F812C006FB04FC4FEA6C3C0FFA8CFC38
:103830000CFB04FCA6EB6C3C0FFA8CF6491CB9425D
:103840008CDB304686E72DE9F04704460F46944668
:103850000122002006E034F9109009FB09F902EB7F
:103860002922401C9842F6DB1A44082501E06D1E0F
:10387000520015B1B2F1804FF9DB122601E0761E3D
:10388000520016B1B2F1804FF9DB002118E04FF081
:10389000000808460BE034F91090A0EB010A34F957
:1038A0001AA009FB0AF949FA05F9C844401C9842D4
:1038B000F1DB48FA06F90FFA89F927F81190491C4B
:1038C0006145E4DBBDE8F08730B5014608460023DA
:1038D000B0F5803F01D3000C0833FF2801D9000A5E
:1038E0001B1D102801D300099B1C042800D35B1C5E
:1038F0001DB2AA1F5000002803DD530041FA03F057
:1039000003E05000434201FA03F0014608B241F2DD
:103910006C0358434CF6AD6303EBA03000B20BB21E
:10392000584345F2B52303EBA03000B20BB2584325
:10393000801300F6326004B2C2F10700002804DDF3
:10394000C2F1070344FA03F002E0D31F04FA03F0C4
:10395000044620B230BD2DE9F04104469C46B1F545
:10396000804F01DB43F6FF7111F5804F00DCFE490B
:103970004FF480460B4634F91280571E34F9177005
:103980004F4307F5005708EBA730022512E01F460A
:1039900001FB03F8C6EB68380FFA88F33E46A2EB4A
:1039A000050834F9188008FB03F808F5005800EB07
:1039B000A8306D1C9542EADDBDE8F0812DE9FF4F8E
:1039C00091B01F9C00200D9001900120089012984A
:1039D00000EBD0714D10604200F003000444681CFD
:1039E00004EB8004A4EB8007604200F00300044471
:1039F000681C04EB8004A4EB8008C146BA46CDF8ED
:103A00001090CDF80CA04FF4005049F8040B4AF880
:103A1000040B002620E0119830F916201298801B24
:103A2000401E119931F910001118049804C804902F
:103A3000881A49F8040B119830F916201298801B47
:103A4000401E119931F91000111A039804C803900F
:103A500088184AF8040B761CAE42DCDBC146BA4635
:103A6000002610E0D9F80000801C8010C9F8000082
:103A7000DAF80000801C8010CAF8000009F104097F
:103A80000AF1040A761CAE42ECDB58F82500001D52
:103A9000C01048F8250057F82500001DC01047F851
:103AA0002500C146BA46604200F001000444681C8B
:103AB00004EB4004A4EB40000590604200F00100DC
:103AC0000444681C04EB4004A4EB4000069000266C
:103AD0000CE038F8260001B2059820F8161037F8E7
:103AE000260001B2069820F81610761C681C864243
:103AF000EFDB00200E904FF480400F9000200990E3
:103B000093E0099800F0010010B10698029001E0DE
:103B10000598029023462A460F990298FFF71BFF4B
:103B200083460120089077E00F984043801300B24D
:103B300043F2B0614843801300B2C0F5804000B248
:103B40001E994843C01300B20090BBF5007F06DA0F
:103B50001BF5007F03DD0098401C40100090009989
:103B60000F98401A00B20E9023462A460E990298EA
:103B7000FFF7F1FE0C900C980A900E9810900C989C
:103B800000F0E0400BF0E041484010B9BBF1000FFD
:103B90003DD10198401C0190CDF82CB00020079039
:103BA00025E00F98401C41100E98401C01EB60006E
:103BB00000B20D9023462A460D990298FFF7CBFEDE
:103BC0000B900B9800F0E0400BF0E041484038B912
:103BD000BBF1000F04D0DDF82CB00D980F9003E07E
:103BE0000B980C900D980E900798401C0790149914
:103BF00007988842D5DD0D9800F037FA099A139995
:103C000021F812000D980F900020089003E0DDF8D5
:103C100028B010980F9000BF089818B10E9810F5B2
:103C2000804F81DA0998401C0990129909988842BE
:103C3000FFF667AF019815B0BDE8F08F2DE9FF4F93
:103C400087B092461E464FEA6A09704200F00300B0
:103C5000064409F1010006EB8006A6EB80077042DE
:103C600000F00300064409F101000AF10301484392
:103C700006EB800609F101004843A6EB80000190A5
:103C8000704200F00300064409F1010006EB8006D3
:103C9000A6EB8008704200F00300064409F1010021
:103CA000484306EB800609F101004843A6EB80007B
:103CB0000090002410E00AF103006043019901EB39
:103CC000800047F824000AF103006043009901EBEB
:103CD000800048F82400641C4C45ECDD704200F084
:103CE0000100064406EB4A06A6EB4A0B002409E055
:103CF000079931F9140000F0E1F9800000B22BF8C7
:103D00001400641C5445F3DB4FF48010049000242D
:103D10001EE0002057F82410486057F8241004983B
:103D2000886057F824206100891C049842F821001B
:103D3000002058F82410486058F82410049888602F
:103D400058F824206100891C049842F82100641C62
:103D50004C45DEDDBBF9001038688068801300B286
:103D60004143BBF9000001E001C0FFFF3A6812893E
:103D7000C2F30D02504301EBA03040427968C860A5
:103D8000BBF90200D8F800108968891309B24843CA
:103D9000BBF90210D8F800201289C2F30D0251437A
:103DA00000EBA1304042D8F80410C8600020059014
:103DB00006900124ACE0012558E057F82410681C57
:103DC00051F82000801300B261003BF91110484304
:103DD00057F82420691C32F82110C1F30D0162004C
:103DE0003BF91220514300EBA130039057F8241007
:103DF000A81C51F820100398081A57F8241051F8FD
:103E000025100144601C57F82020A81C42F82010FF
:103E100058F82410681C51F82000801301B260008B
:103E2000401C3BF91000414358F82420681C32F82C
:103E30002000C0F30D006200521C3BF912205043D9
:103E400001EBA030039058F82410A81C51F8201062
:103E50000398081A58F8241051F825100144601CE2
:103E600058F82020A81C42F820106D1C601C40004F
:103E7000401EA842A1DC57F82410681C51F820000D
:103E8000801301B260003BF91000414357F8242031
:103E9000681C32F82000C0F30D0062003BF91220CC
:103EA000504301EBA030039057F8240050F8251040
:103EB0000398091A601C57F82020A81C42F820100B
:103EC00058F82410681C51F82000801301B26000DB
:103ED000401C3BF91000484358F82420691C32F874
:103EE0002110C1F30D016200521C3BF91220514315
:103EF00000EBA130039058F8240050F825100398E7
:103F0000091A601C58F82020A81C42F82010641CD4
:103F10004C45FFF650AF012535E0082057F8292021
:103F2000A91C52F8212006990A4458F82930A91CE6
:103F300053F821100A440599521A0121814002EBDD
:103F400061010141029157F82920A91C52F8211062
:103F5000069158F82920A91C52F8211005910299C0
:103F600011F5004F01DC784902910299B1F5004F3B
:103F700002DB47F6FF71029102990BB2691E089AA3
:103F800022F811306D1C5545C7DD0BB0BDE8F08F30
:103F9000F0B50C4613461A4646F28846F61A35B274
:103FA000B0F90060964200DA0280661E30F91660B1
:103FB000AE4202DD661E20F81650012123E030F9E2
:103FC00011704E1E30F916601644B74206DA4E1EC6
:103FD00030F81660164436B220F8116030F91170CE
:103FE0004E1C30F91660B61AB7420BDD30F911607D
:103FF00077104E1C30F91660B61A07EB660636B21B
:1040000020F81160491C661E8E42D8DCF0BD2DE9F7
:10401000F0430446DDE9076706F101084FEA8838F6
:104020000FFA87F998FBF9F80FFA88F5C5F580487B
:104030000FFA88FC002014E034F9108008FB0CF81B
:1040400008F500584FEAA83931F9108008FB05F847
:1040500008F5005809EBA8380FFA88F822F8108004
:10406000401C9842E8DBBDE8F0832DE9F0410446AE
:104070000027002C02DA0127604204B2C4F5804018
:1040800004B2641040F2CE50604340F6C20101EB2E
:104090006030604344F2550101EB603000B2604390
:1040A000401306B27003FFF70FFC05461FB146F23E
:1040B0008840401B05B22846BDE8F081024643F225
:1040C000442082421DDA02FB02F000F580504013CA
:1040D00001B26FF00900484300F580504FF4AA7315
:1040E00003EB6030484300F58050184B03EB603021
:1040F000484300F580504FF4005303EB603000B2AA
:10410000704746F28840801A02B202FB02F000F5C6
:104110008050401301B26FF00900484300F5805011
:104120004FF4AA7303EB6030484300F58050074B0F
:1041300003EB6030484300F580504FF46043A3EB3D
:10414000603000B2DCE700000180FFFF00F0FFFFFD
:1041500010B5044620466169884710BD10B5044675
:104160002046216A884710BD10B504462068816941
:104170002046884710BD10B504462068416A204695
:10418000884710BD70B504460D4616462068324675
:104190002946C3692046984770BD70B504460D4650
:1041A0001646206832462946836A2046984770BDE5
:1041B0002DE9F04104460D46164627683246294649
:1041C0002046FB699847BDE8F0812DE9F04104469F
:1041D0000D4616462768324629462046BB6A984750
:1041E000BDE8F08170B504460D461646206832469B
:1041F0002946C36A2046984770BD70B504460D46EF
:104200001646206832462946036B2046984770BD03
:1042100030B503460C46194614B1012C1AD102E000
:10422000086810601BE0106810B90520106010E0ED
:1042300001F11C00156850F8250018B94FF0FF3047
:10424000106006E001F11C00156850F82500406B75
:10425000106004E014A000BF4FF0FF3030BD00BF7D
:104260000020FBE702460A2A15D2DFE802F0140517
:104270001408140B140E14110120086010E0012022
:1042800008600DE00F2008600AE00FA0086007E05A
:104290000EA0086004E011A000BF4FF0FF3070478F
:1042A00000BF0020FBE70000556E6B6E6F776E203D
:1042B0006E625F6D6F64655F71756572792072659E
:1042C00071756573743A20000000000073706565B5
:1042D000782D312E3262657461330000556E6B6E3D
:1042E0006F776E2077625F6D6F64655F7175657261
:1042F0007920726571756573743A20002DE9F04775
:1043000081460F46904604214846FFF7C0F805460F
:1043100005EB850007EB8006706830B141464846E2
:10432000D6E901329847BDE8F087022D01DA012471
:1043300010E0082D01DA04240CE00A2D01DA08242B
:1043400008E00C2D01DA102404E00E2D01DA2024FF
:1043500000E0402421464846FFF718F900BF00203E
:10436000E1E7F8B505460E46144604212846FFF756
:104370008EF800906A4606212046FFF733FF0020A2
:10438000F8BDF8B505460E46144604212846FFF749
:104390007EF800906A4608212046FFF723FF0020A0
:1043A000F8BDF8B505460E46144604212846FFF729
:1043B0006EF800906A460A212046FFF713FF00209E
:1043C000F8BDF8B505460E46144601212846FFF70C
:1043D0005EF800906A4600212046FFF70EFF00209D
:1043E000F8BD2DE9F04105460F4614460821284640
:1043F000FFF74DF8C6B221463046FCF7BCF9002065
:10440000BDE8F0812DE9F04104460E46174604212F
:104410002046FFF73CF80546E800411D2046FFF71F
:10442000B5F80020BDE8F0812DE9F04F80469146B7
:10443000DDE90B7C099DCCF1000202F001029444FD
:104440000CEB470CACEB47000024CCE104FB07F27B
:1044500009EB42064FF0000A07E004FB07A218F937
:10446000022020F81A200AF1010ABA45F5DB0022E1
:1044700045F82420B0F900B0B1F900E00BFB0EF2D2
:104480004FEA623B0FFA8BF355F824B003FB03BBF2
:1044900045F824B03380B0F900B0B1F902E00BFB6D
:1044A0000EF2B0F902B0B1F900E00BFB0E224FEAB8
:1044B000623B0FFA8BF355F824B003FB03BB45F8BE
:1044C00024B07380B0F900B0B1F904E00BFB0EF238
:1044D000B0F902B0B1F902E00BFB0E22B0F904B062
:1044E000B1F900E00BFB0E224FEA623B0FFA8BF3AF
:1044F00055F824B003FB03BB45F824B0B380B0F9F2
:1045000000B0B1F906E00BFB0EF2B0F902B0B1F960
:1045100004E00BFB0E22B0F904B0B1F902E00BFB92
:104520000E22B0F906B0B1F900E00BFB0E224FEA03
:10453000623B0FFA8BF355F824B003FB03BB45F83D
:1045400024B0F380B0F900B0B1F908E00BFB0EF233
:10455000B0F902B0B1F906E00BFB0E22B0F904B0DD
:10456000B1F904E00BFB0E22B0F906B0B1F902E09C
:104570000BFB0E22B0F908B0B1F900E00BFB0E22E4
:104580004FEA623B0FFA8BF355F824B003FB03BBF1
:1045900045F824B03381B0F900B0B1F90AE00BFB63
:1045A0000EF2B0F902B0B1F908E00BFB0E22B0F93F
:1045B00004B0B1F906E00BFB0E22B0F906B0B1F978
:1045C00004E00BFB0E22B0F908B0B1F902E00BFBDE
:1045D0000E22B0F90AB0B1F900E00BFB0E224FEA4F
:1045E000623B0FFA8BF355F824B003FB03BB45F88D
:1045F00024B07381B0F900B0B1F90CE00BFB0EF2FE
:10460000B0F902B0B1F90AE00BFB0E22B0F904B028
:10461000B1F908E00BFB0E22B0F906B0B1F906E0E3
:104620000BFB0E22B0F908B0B1F904E00BFB0E222F
:10463000B0F90AB0B1F902E00BFB0E22B0F90CB0F0
:10464000B1F900E00BFB0E224FEA623B0FFA8BF34D
:1046500055F824B003FB03BB45F824B0B381B0F98F
:1046600000B0B1F90EE00BFB0EF2B0F902B0B1F9F7
:104670000CE00BFB0E22B0F904B0B1F90AE00BFB21
:104680000E22B0F906B0B1F908E00BFB0E22B0F92A
:1046900008B0B1F906E00BFB0E22B0F90AB0B1F98F
:1046A00004E00BFB0E22B0F90CB0B1F902E00BFBF9
:1046B0000E22B0F90EB0B1F900E00BFB0E224FEA6A
:1046C000623B0FFA8BF355F824B003FB03BB45F8AC
:1046D00024B0F381B0F900B0B1F910E00BFB0EF299
:1046E000B0F902B0B1F90EE00BFB0E22B0F904B044
:1046F000B1F90CE00BFB0E22B0F906B0B1F90AE0FB
:104700000BFB0E22B0F908B0B1F908E00BFB0E224A
:10471000B0F90AB0B1F906E00BFB0E22B0F90CB00B
:10472000B1F904E00BFB0E22B0F90EB0B1F902E0D2
:104730000BFB0E22B0F910B0B1F900E00BFB0E221A
:104740004FEA623B0FFA8BF355F824B003FB03BB2F
:1047500045F824B03382B0F900B0B1F912E00BFB98
:104760000EF2B0F902B0B1F910E00BFB0E22B0F975
:1047700004B0B1F90EE00BFB0E22B0F906B0B1F9AE
:104780000CE00BFB0E22B0F908B0B1F90AE00BFB0C
:104790000E22B0F90AB0B1F908E00BFB0E22B0F915
:1047A0000CB0B1F906E00BFB0E22B0F90EB0B1F976
:1047B00004E00BFB0E22B0F910B0B1F902E00BFBE4
:1047C0000E22B0F912B0B1F900E00BFB0E224FEA55
:1047D000623B0FFA8BF355F824B003FB03BB45F89B
:1047E00024B07382641C0A9A9442FFF62FAEBDE88F
:1047F000F08F2DE9FF4FADF21C4DDDF858A4DDF828
:1048000060444FF020090A2563A86290FE48CDF865
:104810001404002000EB4A022EA8DDF81C1408F056
:1048200039FC0022FCE102FB05F063A901EB400327
:104830004FF0000C09E002FB05C1DDF814044056FE
:1048400001A921F81C000CF1010CAC45F3DB0020A0
:1048500042A941F82200BDF904B0B4F900E00BFB15
:104860000EF04FEA603B0FFA8BF10DF5847B5BF89D
:1048700022B001FB01BB0DF5847E4EF822B01980F9
:10488000BDF904B0B4F902E00BFB0EF0BDF906B0BF
:10489000B4F900E00BFB0E004FEA603B0FFA8BF11E
:1048A0000DF5847B5BF822B001FB01BB0DF5847E26
:1048B0004EF822B05980BDF904B0B4F904E00BFB06
:1048C0000EF0BDF906B0B4F902E00BFB0E00BDF925
:1048D00008B0B4F900E00BFB0E004FEA603B0FFAA2
:1048E0008BF10DF5847B5BF822B001FB01BB0DF56C
:1048F000847E4EF822B09980BDF904B0B4F906E088
:104900000BFB0EF0BDF906B0B4F904E00BFB0E0092
:10491000BDF908B0B4F902E00BFB0E00BDF90AB016
:10492000B4F900E00BFB0E004FEA603B0FFA8BF18D
:104930000DF5847B5BF822B001FB01BB0DF5847E95
:104940004EF822B0D980BDF904B0B4F908E00BFBF1
:104950000EF0BDF906B0B4F906E00BFB0E00BDF990
:1049600008B0B4F904E00BFB0E00BDF90AB0B4F9CD
:1049700002E00BFB0E00BDF90CB0B4F900E00BFB3C
:104980000E004FEA603B0FFA8BF10DF5847B5BF86C
:1049900022B001FB01BB0DF5847E4EF822B01981D7
:1049A000BDF904B0B4F90AE00BFB0EF0BDF906B096
:1049B000B4F908E00BFB0E00BDF908B0B4F906E04D
:1049C0000BFB0E00BDF90AB0B4F904E00BFB0E00BE
:1049D000BDF90CB0B4F902E00BFB0E00BDF90EB04E
:1049E000B4F900E00BFB0E004FEA603B0FFA8BF1CD
:1049F0000DF5847B5BF822B001FB01BB0DF5847ED5
:104A00004EF822B05981BDF904B0B4F90CE00BFBAB
:104A10000EF0BDF906B0B4F90AE00BFB0E00BDF9CB
:104A200008B0B4F908E00BFB0E00BDF90AB0B4F908
:104A300006E00BFB0E00BDF90CB0B4F904E00BFB73
:104A40000E00BDF90EB0B4F902E00BFB0E00BDF98B
:104A500010B0B4F900E00BFB0E004FEA603B0FFA18
:104A60008BF10DF5847B5BF822B001FB01BB0DF5EA
:104A7000847E4EF822B09981BDF904B0B4F90EE0FD
:104A80000BFB0EF0BDF906B0B4F90CE00BFB0E0009
:104A9000BDF908B0B4F90AE00BFB0E00BDF90AB08D
:104AA000B4F908E00BFB0E00BDF90CB0B4F906E058
:104AB0000BFB0E00BDF90EB0B4F904E00BFB0E00C9
:104AC000BDF910B0B4F902E00BFB0E00BDF912B055
:104AD000B4F900E00BFB0E004FEA603B0FFA8BF1DC
:104AE0000DF5847B5BF822B001FB01BB0DF5847EE4
:104AF0004EF822B0D981BDF904B0B4F910E00BFB37
:104B00000EF0BDF906B0B4F90EE00BFB0E00BDF9D6
:104B100008B0B4F90CE00BFB0E00BDF90AB0B4F913
:104B20000AE00BFB0E00BDF90CB0B4F908E00BFB7A
:104B30000E00BDF90EB0B4F906E00BFB0E00BDF996
:104B400010B0B4F904E00BFB0E00BDF912B0B4F9DB
:104B500002E00BFB0E00BDF914B0B4F900E00BFB52
:104B60000E004FEA603B0FFA8BF10DF5847B5BF88A
:104B700022B001FB01BB0DF5847E4EF822B01982F4
:104B8000BDF904B0B4F912E00BFB0EF0BDF906B0AC
:104B9000B4F910E00BFB0E00BDF908B0B4F90EE05B
:104BA0000BFB0E00BDF90AB0B4F90CE00BFB0E00D4
:104BB000BDF90CB0B4F90AE00BFB0E00BDF90EB064
:104BC000B4F908E00BFB0E00BDF910B0B4F906E033
:104BD0000BFB0E00BDF912B0B4F904E00BFB0E00A4
:104BE000BDF914B0B4F902E00BFB0E00BDF916B02C
:104BF000B4F900E00BFB0E004FEA603B0FFA8BF1BB
:104C00000DF5847B02E0000074DE00085BF822B042
:104C100001FB01BB0DF5847E4EF822B05982521C77
:104C20004A45FFF600AE4FF00008C6E005FB08F06D
:104C30002EA901EB400005900DF20C410A1D012345
:104C4000DDF86804CDE90132CDE9031042A84B46F6
:104C50002A46009062990598FBF78CFC0522DDF846
:104C60001014DDF86404FEF75DFB0122DDF810048A
:104C7000484502DB921EA0EB090000FB05F30DF591
:104C8000C67C0CEB4301002A16DD002611E005FB73
:104C900008630DF1B80C3CF8133031F816C0A3EBE3
:104CA0000C031BB205FB086C0DF1B80B2BF81C3084
:104CB000761CAE42EBDB14E0002610E005FB086337
:104CC0000DF1B80C3CF8133031F816C063441BB238
:104CD00005FB086C0DF1B80B2BF81C30761CAE42AE
:104CE000ECDB012A12D100270DE000FB057CDDF88A
:104CF000143413F90C305B0205FB087C0DF1180B22
:104D00004BF82C307F1CAF42EFDB12E000270EE0A7
:104D100000FB057CDDF8143413F90C305B025B42B8
:104D200005FB087C0DF1180B4BF82C307F1CAF42B3
:104D3000EEDB00263DE001200390DDF8101449452C
:104D400003DB801E0390A1EB0901A81BCDF818041A
:104D500001FB0562DDF814048056039A504303B248
:104D6000049308F1010068430DF1B80B0BEB40020E
:104D7000DDF8180404EB400C08F1010005FB10A05D
:104D8000049B029000200EE032F810E03CF910B0D5
:104D90000BFB03FB0BF5805BAEEB6B3B0FFA8BFB66
:104DA00022F810B0401CDDF808B05845ECDB00BF1D
:104DB000761CAE42BFDB08F10108B8F1040FFFF624
:104DC00035AF00270CE0DDF85C0450F8270006A999
:104DD00051F827100144DDF85C0440F827107F1CCF
:104DE0005745F0DB0DF22C4DBDE8F08F2DE9FF4F5C
:104DF00083B08846109EC246DAF80090DAF8045074
:104E0000DAF808000190DAF810000090704200F023
:104E10000300064406EB8506A6EB850B704200F006
:104E20000300064406EB8506A6EB850002900024ED
:104E300015E0009838B101210698FEF728FB029989
:104E400041F8240003E00021029840F82410DAF829
:104E50000C100698FEF71BFB4BF82400641CAC42B8
:104E6000E7DB00242CE00120029951F8241001B165
:104E7000801E012811D100270CE05BF8241001FBF3
:104E80000972019989564A0209FB0473039941F892
:104E900023207F1C4F45F0DB11E000270DE05BF87D
:104EA000241001FB09720199895649024A4209FB03
:104EB0000473039941F823207F1C4F45EFDB641CEA
:104EC000AC42D0DB07B0BDE8F08F2DE9FF4F85B0D5
:104ED00081468A46DDE913B4159F189D684200F0AB
:104EE0000100054405EB4405A5EB4408CDE902B5F6
:104EF000CDE9008451464846DDE9072300F011FD65
:104F0000002608E057F8260038F9161000EB0120BB
:104F100047F82600761CA642F4DB6100484608F0FC
:104F2000E0F809B0BDE8F08F2DE9F04705468C4662
:104F30009846DDE90864002015E00121DFF8309093
:104F4000DFF830A027680AFB0797276027683F141F
:104F500007FB01F3A3EBE30707F50057BF13B90302
:104F600045F82010401C9042E7DBBDE8F0870000C8
:104F70005FF36E3C0D66190030B50146084600230C
:104F8000B0F5803F01D3000C0833FF2801D9000A97
:104F90001B1D102801D300099B1C042800D35B1C97
:104FA0001DB2AA1F5000002803DD530041FA03F090
:104FB00003E05000434201FA03F0014608B241F217
:104FC0006C0358434CF6AD6303EBA03000B20BB258
:104FD000584345F2B52303EBA03000B20BB258435F
:104FE000801300F6326004B2C2F10700002804DD2D
:104FF000C2F1070344FA03F002E0D31F04FA03F0FE
:10500000044620B230BD2DE9F04F94B089461D46CC
:10501000DDE91EC81D9F4FF4005671424FF4805ABF
:105020000AEB863A4FEA6A3A0FFA8AFAA5F800A024
:10503000B5F800A0CAF1000A0FFA8AF3B2F900A08D
:105040000AFB01FACDF828A0B0F900A00AFB03FA88
:10505000CDF800A0B2F902A00AFB01FACDF82CA00D
:10506000B0F902A00AFB03FACDF804A0B2F904A03B
:105070000AFB01FACDF830A0B0F904A00AFB03FA4C
:10508000CDF808A0B2F906A00AFB01FACDF834A0C9
:10509000B0F906A00AFB03FACDF80CA0B2F908A0FB
:1050A0000AFB01FACDF838A0B0F908A00AFB03FA10
:1050B000CDF810A0B2F90AA00AFB01FACDF83CA085
:1050C000B0F90AA00AFB03FACDF814A0B2F90CA0BB
:1050D0000AFB01FACDF840A0B0F90CA00AFB03FAD4
:1050E000CDF818A0B2F90EA00AFB01FACDF844A041
:1050F000B0F90EA00AFB03FACDF81CA0B2F910A07B
:105100000AFB01FACDF848A0B0F910A00AFB03FA97
:10511000CDF820A0B2F912A00AFB01FACDF84CA0FC
:10512000B0F912A00AFB03FACDF824A00124BEE0D6
:10513000A4F1010A39F81AB0DDF828A00AF5805A5E
:105140000BEB6A3A0FFA8AF6C6F1000A0FFA8AF1F7
:10515000DDF800A00AEB863A0AF5805A4FEA6A3A6F
:105160000FFA8AFA25F814A035F814A0CAF1000A3B
:105170000FFA8AF3B2F900B0DDF82CA00BFB01AAFC
:10518000CDF828A0B0F900B0DDF804A00BFB03AA0D
:10519000CDF800A0B2F902B0DDF830A00BFB01AAF7
:1051A000CDF82CA0B0F902B0DDF808A00BFB03AAE3
:1051B000CDF804A0B2F904B0DDF834A00BFB01AACD
:1051C000CDF830A0B0F904B0DDF80CA00BFB03AAB9
:1051D000CDF808A0B2F906B0DDF838A00BFB01AAA3
:1051E000CDF834A0B0F906B0DDF810A00BFB03AA8F
:1051F000CDF80CA0B2F908B0DDF83CA00BFB01AA79
:10520000CDF838A0B0F908B0DDF814A00BFB03AA64
:10521000CDF810A0B2F90AB0DDF840A00BFB01AA4E
:10522000CDF83CA0B0F90AB0DDF818A00BFB03AA3A
:10523000CDF814A0B2F90CB0DDF844A00BFB01AA24
:10524000CDF840A0B0F90CB0DDF81CA00BFB03AA10
:10525000CDF818A0B2F90EB0DDF848A00BFB01AAFA
:10526000CDF844A0B0F90EB0DDF820A00BFB03AAE6
:10527000CDF81CA0B2F910B0DDF84CA00BFB01AAD0
:10528000CDF848A0B0F910B0DDF824A00BFB03AABC
:10529000CDF820A0B2F912A00AFB01FACDF84CA07B
:1052A000B0F912A00AFB03FACDF824A0641C0B2C61
:1052B000FFF63EAF0B24BAE0DDF828A00AF5805ACD
:1052C0004FEA6A3A0FFA8AF6C6F1000A0FFA8AF133
:1052D000DDF800A00AEB863A0AF5805A4FEA6A3AEE
:1052E0000FFA8AFA25F814A035F814A0CAF1000ABA
:1052F0000FFA8AF3B2F900B0DDF82CA00BFB01AA7B
:10530000CDF828A0B0F900B0DDF804A00BFB03AA8B
:10531000CDF800A0B2F902B0DDF830A00BFB01AA75
:10532000CDF82CA0B0F902B0DDF808A00BFB03AA61
:10533000CDF804A0B2F904B0DDF834A00BFB01AA4B
:10534000CDF830A0B0F904B0DDF80CA00BFB03AA37
:10535000CDF808A0B2F906B0DDF838A00BFB01AA21
:10536000CDF834A0B0F906B0DDF810A00BFB03AA0D
:10537000CDF80CA0B2F908B0DDF83CA00BFB01AAF7
:10538000CDF838A0B0F908B0DDF814A00BFB03AAE3
:10539000CDF810A0B2F90AB0DDF840A00BFB01AACD
:1053A000CDF83CA0B0F90AB0DDF818A00BFB03AAB9
:1053B000CDF814A0B2F90CB0DDF844A00BFB01AAA3
:1053C000CDF840A0B0F90CB0DDF81CA00BFB03AA8F
:1053D000CDF818A0B2F90EB0DDF848A00BFB01AA79
:1053E000CDF844A0B0F90EB0DDF820A00BFB03AA65
:1053F000CDF81CA0B2F910B0DDF84CA00BFB01AA4F
:10540000CDF848A0B0F910B0DDF824A00BFB03AA3A
:10541000CDF820A0B2F912A00AFB01FACDF84CA0F9
:10542000B0F912A00AFB03FACDF824A0641C282CC2
:10543000FFF642AF14B0BDE8F08F70B504462546C4
:1054400000200FE031F910606E4306F58046F61338
:1054500036B222F8106005FB04F606F58046F61316
:1054600035B2401C9842EDDB70BD30B504460020DB
:1054700019E054F820508D4203DB54F82050954237
:1054800010DD54F820508D4202DA44F8201009E073
:1054900054F82050954202DD44F8202002E0002517
:1054A00044F82050401C9842E3DB30BD2DE9F04F1A
:1054B00091B006468A4693461F46DDF86880202252
:1054C000FA4909A807F0E6FD2022F849203101A891
:1054D00007F0E0FD042F00DD042707EB470009A9D2
:1054E00001EB400507EB470001A901EB400900244F
:1054F00053E0B9F9003036F914C0D8F8002003FBA6
:105500000C2000F500524FF40043B3EBA23F01DC46
:105510005A1E0AE000F50052E54BB3EBA23F01DB57
:105520005A1C02E000F50052921311B26A885242EE
:1055300012B2C3131BB25A436B885B421BB2C0F357
:105540000E0C03FB0CF302EBE332B9F902C036F99F
:1055500014E0D8F804300CFB0E3303EB4202C8F819
:105560000020AA88524212B2C3131BB25A43AB881E
:105570005B421BB2C0F30E0C03FB0CF302EBE333F4
:10558000B9F9042036F914C002FB0CF202EB430215
:10559000C8F804202AF81410641C5C45A9DB11B07B
:1055A000BDE8F08FF0B50446002013E054F8205019
:1055B000ED112DB2961336B2754354F82060F611F2
:1055C00036B2C2F30D077E4305EBA635ED0141F877
:1055D0002050401C9842E9DBF0BDF0B50446B2F51E
:1055E000800F1ADD02F50056B21316B24FF4001701
:1055F00007EB660617B296FBF7F635B2002009E016
:1056000034F910606E4306F58046F61336B221F881
:105610001060401C9842F3DB37E0B2F5805F18DD84
:1056200002F58076721216B24FF4003797FBF6F649
:1056300035B200200AE034F81060B60036B26E438E
:105640008036361236B221F81060401C9842F2DBE8
:105650001BE002F14006F211052A00DA052216B21B
:105660004FF4003797FBF6F635B200200AE034F825
:105670001060B60036B26E432036B61136B221F84D
:105680001060401C9842F2DB00BFF0BD2DE9F047EE
:1056900006460F464FF000094FF00108002408E0CD
:1056A00056F82400002800DA4042404500DD8046DC
:1056B000641CBC42F4DB002502E06D1C4FEA680864
:1056C000B8F5804FF9DA00241EE0002156F82420B6
:1056D0002A4110B200FB0011621C56F822202A4118
:1056E00010B200FB0011A21C56F822202A4110B271
:1056F00000FB0011E21C56F822202A4110B200FBE8
:10570000001109EBA119241DBC42DEDB99FBF7FA5D
:105710005046FFF731FCE91C884000F5005080132B
:1057200000B2BDE8F0872DE9F04705460F464FF07F
:105730000A08002409E035F91400002800DA404284
:10574000404501DD0FFA80F8641CBC42F3DBB8F57C
:10575000804F37DB0026002429E0002035F91410A3
:10576000491035F91420521001FB0200611C35F973
:1057700011104A10611C35F91110491002FB01008B
:10578000A11C35F911104A10A11C35F9111049104E
:1057900002FB0100E11C35F911104A10E11C35F93A
:1057A0001110491002FB010006EBA016241DBC429B
:1057B000D3DB96FBF7F94846FFF7DEFB000100B2AA
:1057C000BDE8F0874FF000090026B8F5005F00DA69
:1057D0000126B8F5805F00DA0226B8F5006F00DA1E
:1057E0000326002431E0002035F81410B1400AB23D
:1057F00035F81410B14009B202FB0100611C35F804
:105800001110B1400AB2611C35F81110B14009B253
:1058100002FB0100A11C35F81110B1400AB2A11C15
:1058200035F81110B14009B202FB0100E11C35F856
:105830001110B1400AB2E11C35F81110B14009B2A3
:1058400002FB010009EBA019241DBC42CBDB99FB34
:10585000F7FA5046FFF790FBC6F10301884000B20B
:10586000AEE7F0B504460E4617460125002108E0D4
:1058700054F82120002A00DA5242AA4200DB1546E1
:10588000491C9942F4DB002001E0401C6D10BD4230
:10589000FBDC002106E054F82120024112B226F878
:1058A0001120491C9942F6DBF0BD000044DB0008E2
:1058B0000080FFFF2DE9FF4F85B091469A46DDE954
:1058C000128BDDE91445684200F00300054405EB46
:1058D0008405A5EB8407002603E0002047F8260096
:1058E000761CA642F9DB5B464246CDE90175009481
:1058F000DDE90501FAF7B9FC002603E0002047F8CE
:105900002600761CA642F9DB4346524649464046ED
:10591000CDE900B4CDE90275FAF714FC09B0BDE891
:10592000F08F2DE9FF4F85B083469946DDE9128A55
:10593000DDE91445684200F00300054405EB8405E9
:10594000A5EB8407002603E0002047F82600761C1C
:10595000A642F9DB4346CDE900A4CDE902755846DD
:10596000DDE90612FAF7EEFB002603E0002047F817
:105970002600761CA642F9DB53464246494640467D
:10598000CDE90175009407F01DFD09B0BDE8F08F69
:105990002DE9FF4F81B08146DDE90E64119D6F4214
:1059A00007F001073D4405EB4405A5EB44036F42B6
:1059B00007F001073D4437197F1E05EB47053719EE
:1059C0007F1EA5EB470202EB4407A7F1020A67100E
:1059D0000097002007E0029F37F810C0271A7F1EAB
:1059E00023F817C0401CA042F5DB002008E0271A6E
:1059F000BF1EDDF840C03CF8177022F81070401C44
:105A0000671E8742F3DC002008E039F910704FEA86
:105A1000670C07197F1E22F817C0401CB042F4DB48
:105A2000002009E0371A7F1E39F917704FEA670C1A
:105A3000109F27F810C0401C671E8742F2DC002030
:105A4000804686E00027BC4600213FE000EB010BCA
:105A500032F81BB0A0EB010E3AF81EE0F3440FFA47
:105A60008BFB33F911E00EFB0B7700EB010B32F8E7
:105A70001BB0A0EB010E3AF81EE0ABEB0E0B0FFAD9
:105A80008BFB33F911E00EFB1BCC491C00EB010B27
:105A900032F81BB0A0EB010E3AF81EE0F3440FFA07
:105AA0008BFB33F911E00EFB0B7700EB010B32F8A7
:105AB0001BB0A0EB010E3AF81EE0ABEB0E0B0FFA99
:105AC0008BFB33F911E00EFB0BCC491CDDF800B069
:105AD0005945BBDB07F5804B4FF4004EBEEBEB3F67
